S011000057636F756E746572412E737265637B
S11300000C948F000C94AC000C94AC000C94AC00D9
S11300100C94AC000C94AC000C94AC000C94AC00AC
S11300200C94AC000C94AC000C94AC000C940D0635
S11300300C94AC000C94AC000C94AC000C94AC008C
S11300400C94AC000C94AC000C94AC000C94AC007C
S11300500C94AC000C94AE000C94AC000C94AC006A
S11300600C94AC000C94AC00636F6E6E656374000A
S1130070636F6E74726F6C2F2300257328256C7563
S1130080293A20255300676F20746F206D61696ED3
S1130090206379636C650A00257328256C75293AF9
S11300A0202553007365690A00257328256C75297A
S11300B03A202553006E6574776F726B0A002573BE
S11300C028256C75293A202553006164630A0025AC
S11300D07328256C75293A202553007370690A002A
S11300E0257328256C75293A20255300636C6F63AA
S11300F06B2025640A00257328256C75293A202570
S11301005300756172740A00636E742F656E640027
S1130110636E742F626567004C6576656C0011240C
S11301201FBECFEFD8E0DEBFCDBF11E0A0E0B1E04D
S1130130E4ECF1E202C005900D92A638B107D9F7BC
S113014025E0A6E8B1E001C01D92AA30B207E1F7AC
S11301500E947C030C94E0100C9400001F920F92F8
S11301600FB60F9211240F931F932F933F934F9326
S11301705F936F937F938F939F93AF93BF93EF930B
S1130180FF93809178002091790090E0922B9093D6
S11301908D0180938C012091000130910101582F31
S11301A0492F2817390710F4522F432F5093000179
S11301B04093010120918A0130918B0182179307AA
S11301C008F4C90190938B0180938A010E944B0625
S11301D00091B9011091BA012091BB013091BC0189
S11301E0601B710B820B930B0091BD011091BE013A
S11301F02091BF013091C0016017710782079307F6
S113020008F465C00E944B066093B9017093BA016B
S11302108093BB019093BC0180918A0190918B01E2
S11302202091000130910101821B930B90938D0169
S113023080938C0110928B0110928A0180E094E0EB
S113024090930101809300010E944B060091B1013B
S11302501091B2012091B3013091B401601B710B74
S1130260820B930B0091B5011091B6012091B70157
S11302703091B801601771078207930708F43FC0F3
S11302800E944B066093B1017093B2018093B30155
S11302909093B4018091C301811111C080918801B0
S11302A09091890160918601709187010E94940D5B
S11302B07093C2016093C1018FEF8093C3011092C8
S11302C08901109288011092870110928601809111
S11302D07A00806480937A00FF91EF91BF91AF918F
S11302E09F918F917F916F915F914F913F912F914A
S11302F01F910F910F900FBE0F901F901895809132
S113030088019091890120918C0130918D01820F97
S1130310931F909389018093880180918601909125
S1130320870101969093870180938601D0CFCF9364
S1130330DF93ECE7F0E080818F7D808380818064AF
S113034080838081807F8083808185608083CAE709
S1130350D0E08881806888838881876088838881E9
S11303608860888385E090E0A0E0B0E08093BD01E0
S11303709093BE01A093BF01B093C0010E944B06AD
S11303806093B9017093BA018093BB019093BC014F
S113039082E390E0A0E0B0E08093B5019093B601D1
S11303A0A093B701B093B8010E944B066093B101CA
S11303B07093B2018093B3019093B4011092C3017E
S11303C0888180648883DF91CF9108952A9A229A44
S11303D0289A209A84B1886284B980E58CBD8DB551
S11303E081608DBD08955F934F937F936F938FE5E5
S11303F091E09F938F93E6E0F5E081818F93808174
S11304008F930E94E20D8DB79EB708960FB6F894AD
S11304109EBF0FBE8DBF08950F931F93CF93DF939D
S11304208C01FC01C28DD38D46E950E060EF72E08F
S11304300E94620A0000AC0160EF72E088850E94AD
S11304405F0881110BC00E944B0669877A878B87EE
S11304509C87DF91CF911F910F910895000083E055
S1130460F80183A788850E94C5078885DF91CF910D
S11304701F910F910C945F070F931F93CF93DF93FA
S11304808C01E0910201F0910301628973897093F8
S11304908F0160938E01EB0109900020E9F7219709
S11304A0C61BD70B80EF92E00E94DB0DFE01E051EA
S11304B0FD4F8FE28083B801CE018F509D4F0E9483
S11304C0CB0D80EF92E0DF91CF911F910F910895B2
S11304D0CF92DF92EF92FF920F931F93CF93DF930C
S11304E0EC010881198188850E945807883109F434
S11304F08EC028F4882341F0873141F191C08A519C
S1130500843008F08DC083C0000040E050EC61E00E
S113051088850E9475079885891382C083E0F80155
S113052083A78FE99FE00197F1F700C00000000066
S11305304E815F81BE016E5F7F4F88850E94DB071D
S1130540811102C000006CC0000041C0F80183A505
S1130550823031F0833009F5C8010E949A0A1DC027
S11305600E944B06C984DA84EB84FC846C197D09EF
S11305708E099F09CD84DE84EF84F8886C157D058F
S11305808E059F0550F00E944B0669877A878B87FA
S11305909C870000C8010E942D0CF8018681978178
S11305A0892B19F0C8010E940C0288850E949509C4
S11305B07C010097A9F10000AC0160EF72E088852E
S11305C00E941609892B89F083E0F80183A78885A6
S11305D00E94C5078885DF91CF911F910F91FF90ED
S11305E0EF90DF90CF900C945F07A70160EF72E06B
S11305F0C80108960E94190AC801DF91CF911F9182
S11306000F91FF90EF90DF90CF900C94590C888558
S11306100E94C50788850E945F0783E0F80183A7CD
S1130620DF91CF911F910F91FF90EF90DF90CF90CA
S11306300895E0910201F0910301828D938D892B3D
S113064021F482E091E0938F828F82E091E00C9418
S113065068029A01E0910201F091030143A542303E
S113066039F40000AB01BC0183E191E00C94C20BAE
S113067000000895CF92DF92EF92FF920F931F93A1
S1130680CF93DF937C01FC01C28DD38D80E790E092
S11306900E943C02BC01C7010E94450BF701C288BD
S11306A0D388F60101900020E9F78F010150110968
S11306B00C191D0988E690E00E943C02A801B601CD
S11306C00E942903F70120893189A4EFB1E00E9437
S11306D0BC0D6D877E878F87988B0E944B06698738
S11306E07A878B879C87DF91CF911F910F91FF9021
S11306F0EF90DF90CF9008950E94D7090E944B0697
S113070022E031E03F932F939F938F937F936F93D6
S1130710CEE6D1E0DF93CF9386EF90E09F938F9363
S1130720809107058F93809106058F930E94F40DA5
S11307300E9432060E944B062CEE30E03F932F932A
S11307409F938F937F936F93DF93CF9380EE90E08B
S11307509F938F93809107058F93809106058F93C4
S11307600E94F40D0E94E6010E944B062BED30E03E
S11307703F932F939F938F937F936F93DF93CF93A5
S11307808FEC90E09F938F93809107058F938091D6
S113079006058F930E94F40D8DB79EB784960FB60D
S11307A0F8949EBF0FBE8DBF0E9497010E9456040D
S11307B00E944B062AEC30E03F932F939F938F9334
S11307C07F936F93DF93CF938EEB90E09F938F9300
S11307D0809107058F93809106058F930E94F40DF5
S11307E08FE391E00E9447070E944B0625EB30E01F
S11307F03F932F939F938F937F936F93DF93CF9325
S113080089EA90E09F938F93809107058F9380915D
S113081006058F930E94F40D78940E944B0624EAF7
S113082030E03F932F939F938F937F936F93CEE604
S1130830D1E0DF93CF9388E990E09F938F938091E9
S113084007058F93809106058F930E94F40D8DB751
S11308509EB784960FB6F8949EBF0FBE8DBF0E94BC
S11308604B0626E830E03F932F939F938F937F931B
S11308706F93DF93CF938AE790E09F938F93809158
S113088007058F93809106058F930E94F40D8DB711
S11308909EB70C960FB6F8949EBF0FBE8DBF0E94F4
S11308A019030E946D040E943305F9CF84EF91E08F
S11308B0A0E0B0E08093940190939501A0939601F9
S11308C0B09397010E944B0660939001709391013D
S11308D0809392019093930108958091C30188239A
S11308E009F4C0C02091AC018091C1019091C20172
S11308F0211158C0843F914060F0809198019091FB
S11309009901A0919A01B0919B010196A11DB11D7D
S113091003C080E090E0DC018093980190939901FA
S1130920A0939A01B0939B014091A0015091A10121
S11309306091A2017091A3018B309105A105B105CD
S113094010F18093A4019093A501A093A601B09304
S1130950A701481B590B6A0B7B0B4093A0015093D2
S1130960A1016093A2017093A301109298011092C7
S1130970990110929A0110929B018FEF8093AC0120
S11309808093AB010CC04F5F5F4F6F4F7F4F40931D
S1130990A0015093A1016093A2017093A30110924E
S11309A0C30108958536910508F058C080919C01D3
S11309B090919D01A0919E01B0919F010196A11D6E
S11309C0B11D80939C0190939D01A0939E01B093CF
S11309D09F014091A4015091A5016091A6017091DD
S11309E0A7018B309105A105B10558F18093A001B1
S11309F09093A101A093A201B093A301481B590BAA
S1130A006A0B7B0B4093A4015093A5016093A6014C
S1130A107093A70110929C0110929D0110929E0167
S1130A2010929F011092AC018FEF8093AA018091E4
S1130A30A8019091A90101969093A9018093A8011E
S1130A40AECF4F5F5F4F6F4F7F4F4093A4015093E2
S1130A50A5016093A6017093A701A1CF80E090E067
S1130A60DC01AFCF0895CF92DF92EF92FF920F9304
S1130A701F93CF93DF930E944B0600919001109136
S1130A8091012091920130919301C0909401D090F2
S1130A909501E0909601F0909701601B710B820B19
S1130AA0930B6C157D058E059F0588F10C0D1D1D9E
S1130AB02E1D3F1D009390011093910120939201EC
S1130AC0309393018091C2018F938091C1018F93E0
S1130AD083E791E09F938F93C0EFD4E0DF93CF93AC
S1130AE00E940F0E09900020E9F72197C05FD440BF
S1130AF088E191E00E943C02AE0160EF74E00E9444
S1130B0029030F900F900F900F900F900F908091EA
S1130B10AB018823B9F18091A3018F938091A20145
S1130B208F938091A1018F938091A0018F938091E5
S1130B30A8019091A90101969F938F9386E791E074
S1130B409F938F93C0EFD4E0DF93CF930E940F0E57
S1130B501092AB0109900020E9F72197C05FD440BF
S1130B6080E191E00E943C02AE0160EF74E00E94DB
S1130B7029032DB73EB7265F3F4F0FB6F8943EBF0B
S1130B800FBE2DBF8091AA018823F1F18091A701A6
S1130B908F938091A6018F938091A5018F9380916B
S1130BA0A4018F938091A9018F938091A8018F93C1
S1130BB08DE791E09F938F93C0EFD4E0DF93CF93C1
S1130BC00E940F0E1092AA0109900020E9F72197C4
S1130BD0C05FD44088E091E00E943C022DB73EB74C
S1130BE0265F3F4F0FB6F8943EBF0FBE2DBFAE0138
S1130BF060EF74E0DF91CF911F910F91FF90EF9020
S1130C00DF90CF900C942903DF91CF911F910F9126
S1130C10FF90EF90DF90CF9008951F920F920FB640
S1130C200F9211248F939F93AF93BF938091AD0143
S1130C309091AE01A091AF01B091B0010196A11DB8
S1130C40B11D8093AD019093AE01A093AF01B09319
S1130C50B001BF91AF919F918F910F900FBE0F90F4
S1130C601F9018951092AD011092AE011092AF0131
S1130C701092B001EFE6F0E0808182608083E1E8C9
S1130C80F0E080818C6080838DE790E09093890010
S1130C908093880008956091AD017091AE018091B8
S1130CA0AF019091B00108952A9808952A9A089561
S1130CB08EBD0DB407FEFDCF8FE99FE00197F1F7DC
S1130CC000C000008EB508951F93CF93DF9300D02A
S1130CD0CDB7DEB7182F6A8399830E94540680EF3C
S1130CE00E9458069981892F0E945806812F0E94DC
S1130CF058066A81862F0E9458060F900F90DF9144
S1130D00CF911F910C9456061F93CF93DF931F929C
S1130D10CDB7DEB7182F99830E9454068FE00E9446
S1130D2058069981892F0E945806812F0E945806DF
S1130D3080E00E94580689830E94560689810F909C
S1130D40DF91CF911F91089560E880E090E00E94C8
S1130D5064068FE39CE90197F1F700C00000089551
S1130D60CF93DF93EC01009709F48DC06E8581E089
S1130D7090E00E9464066F8582E090E00E94640621
S1130D80688983E090E00E946406698984E090E0C9
S1130D900E9464068FE99FE00197F1F700C000000C
S1130DA0688189E090E00E94640669818AE090E0AD
S1130DB00E9464066A818BE090E00E9464066B8165
S1130DC08CE090E00E9464066C818DE090E00E94CB
S1130DD064066D818EE090E00E9464068FE99FE0D6
S1130DE00197F1F700C000006A8585E090E00E9459
S1130DF064066B8586E090E00E9464066C8587E05B
S1130E0090E00E9464066D8588E090E00E9464068C
S1130E108FE99FE00197F1F700C000006E818FE039
S1130E2090E00E9464066F8180E190E00E94640675
S1130E30688581E190E00E946406698582E190E022
S1130E400E9464068FE99FE00197F1F700C000005B
S1130E5060E087E190E00E94640668EC88E190E03D
S1130E600E94640664E089E190E00E94640665E5FE
S1130E708AE190E00E94640665E58BE190E00E94BF
S1130E80640680E001C08FEFDF91CF910895CF9386
S1130E90DF9300D0CDB7DEB789839A830E94A4067E
S1130EA089819A810F900F90DF91CF910C94B006B5
S1130EB090E0982F88278D5F9B4F0C948406CF93E6
S1130EC0DF93853078F4C82FD0E0DC2FCC27CF5FB8
S1130ED0DB4F60E1CE010E946406CE010E948406CD
S1130EE08111FBCFDF91CF910895CF92DF92EF92E2
S1130EF0FF920F931F93CF93DF93F82EC62EE42E09
S1130F00D52E83E08F15A8F1CF2DD0E02496DC2FC9
S1130F10CC278E010D5F1F4FC8010E9484068823D1
S1130F2019F08F2D0E945F076FEFCE0102960E9489
S1130F3064066C2DCE010E9464066D2DCE010496CC
S1130F400E9464066E2DCE0105960E9464062196C9
S1130F5061E0CE010E946406CE010E9484068111E4
S1130F60FBCFC8010E948406833129F08F2D0E9493
S1130F705F07FF24FA948F2DDF91CF911F910F917A
S1130F80FF90EF90DF90CF900895CF93DF9385305B
S1130F9078F4C82FD0E0DC2FCC27CF5FDB4F68E09C
S1130FA0CE010E946406CE010E9484068111FBCF0B
S1130FB0DF91CF910895BF92CF92DF92EF92FF928B
S1130FC00F931F93CF93DF93D82E8B01C42EB52E8E
S1130FD084E08D1508F449C0CD2DD0E02496DC2F93
S1130FE0CC277E01E3E0EE0EF11CC7010E948406CB
S1130FF08331D9F5F8016081CE010C960E94640614
S1131000F8016181CE010D960E946406F8016281A7
S1131010CE010E960E946406F8016381CE010F96FC
S11310200E9464066B2DCE0140960E9464066C2DCE
S1131030CE0141960E946406219664E0CE010E948E
S11310406406CE010E9484068111FBCFC7010E9471
S11310508406873111F08111F9CFC7010E948406FB
S1131060873129F08D2D0E945F078FEF01C080E04A
S1131070DF91CF911F910F91FF90EF90DF90CF9070
S1131080BF9008950F931F93CF93DF9390E004963E
S1131090D82FCC27CE0180960E948406082F10E01A
S11310A0102F0027CE0181960E9484069801280FF4
S11310B0311DC901DF91CF911F910F9108954F9276
S11310C05F926F927F928F929F92AF92BF92CF92D4
S11310D0DF92EF92FF920F931F93CF93DF93582EDB
S11310E03B017A014115510509F48EC083E0851551
S11310F008F48AC0052D10E00C5F1F4F102F002745
S1131100E801A096CE010E948406A82EB12CBA2C28
S1131110AA24680191E2C90ED11CC6010E9484066A
S1131120A80EB11C9AEE892E93E0992EAE14BF043A
S1131130E0F48FE99FE00197F1F700C00000CE01D1
S11311400E948406A82EB12CBA2CAA24C6010E949F
S11311508406A80EB11C91E0891A910881149104A7
S113116029F7852D0E94C5074FC0CAEED3E0852D0F
S11311700E9442088E159F0550F48FE99FE0019765
S1131180F1F700C000002197209789F7EACF4801C2
S113119094E2890E911CC4010E948406C82E580151
S11311A085E2A80EB11CC5010E948406D12CDC2C5A
S11311B0CC24C80ED11C2701E30136016C1A7D0A28
S11311C091E0491A5108CE01860D971D97706991D7
S11311D0905C0E9464064114510491F7EC0CFD1CD0
S11311E06F2DC4010E9464066E2DC5010E94640621
S11311F00F5F1F4F60E2C8010E946406C8010E948D
S113120084068111FBCF01C08FEFDF91CF911F9135
S11312100F91FF90EF90DF90CF90BF90AF909F9091
S11312208F907F906F905F904F9008952F923F9290
S11312304F925F926F927F928F929F92AF92BF92E2
S1131240CF92DF92EF92FF920F931F93CF93DF938E
S11312501B014115510509F453C0843008F050C0F6
S1131260EA014F3F91E0590710F0CEEFD1E0E82EAC
S1131270F12CE4E0EE0EF11CFE2CEE244701F8E222
S11312808F0E911CC4010E948406082F570189E225
S1131290A80EB11CC5010E94840610E0102F00277F
S11312A0080F111D6E01210138016218730891E0C5
S11312B0C91AD108C201860D971D9770905A0E94D1
S11312C08406F20181932F01C114D10481F70C0F1C
S11312D01D1FC20DD31D1882612FC4010E94640614
S11312E0602FC5010E94640660E4C70101960E9454
S11312F06406FAE1FA95F1F700C080E090E002C0DC
S11313008FEF90E0DF91CF911F910F91FF90EF90BD
S1131310DF90CF90BF90AF909F908F907F906F9011
S11313205F904F903F902F9008950F931F93CF930A
S1131330DF938430A8F490E00496D82FCC27CE0114
S113134086960E948406082F10E0102F0027CE01F5
S113135087960E9484069801280F311DC90102C096
S113136080E090E0DF91CF911F910F910895CF938A
S1131370C82F8A3019F48DE00E94B7098091C0000B
S113138085FFFCCFC093C60080E090E0CF91089524
S1131390CF93BC018091C00087FFFCCFC091C600F1
S11313A08C2F0E94B7098C2F90E0CF910895109252
S11313B0C50082E28093C400E0ECF0E080818260AA
S11313C0808386E08093C20088E18093C10081E538
S11313D091E090930705809306059093050580930B
S11313E0040508950F931F93CF93DF939C01EB01A2
S11313F0FB0100E810E0C901B8010E94A80DAC018E
S113140037FF02C021583F4F220F232F221F330BD7
S11314101216130614F4AC0140684193CF018C1BDF
S11314209D0B2115310539F7DF91CF911F910F9154
S11314300895CF92DF92EF92FF920F931F93CF9371
S1131440DF93FC017B019A01008111816281738128
S11314506B0181E0C81AD108C00ED11E8481958128
S1131460801B910B46815781840F951F0E94A80D04
S1131470DC01A00FB11F12161306D4F4CA16DB0642
S113148010F4A081B18186819781892B29F0848110
S11314909581A817B90761F0E70189917E018D93C1
S11314A08681978101969783868321503109E3CF02
S11314B0C901DF91CF911F910F91FF90EF90DF90C1
S11314C0CF9008950F931F93CF93DF93FC018281F4
S11314D093810197C081D181C80FD91F8B0180E00E
S11314E090E0841795070CF52681378112161306B0
S11314F0E4F424813581D9012C91D8012D938D01F7
S1131500248135812F5F3F4F358324836681778122
S11315106150710977836683C217D30720F4208151
S11315203181358324830196DCCFDF91CF911F91E4
S11315300F910895EF92FF920F931F93CF93DF9330
S1131540CDB7DEB761970FB6F894DEBF0FBECDBF3F
S11315508C01DC015296ED91FC915397DF010D90C3
S11315600020E9F7CD0101977C01EE1AFF0AD801AA
S113157018968D919C9119971D969C938E931C9708
S11315801F961C921E921E978D919C9111971596F1
S11315909C938E93149717961C921E9216979B9663
S11315A01C929B9791961C921E9290975D961C920A
S11315B01E925C975F961C921E925E9781E090E06B
S11315C093969C938E93929780E1898B198284E001
S11315D08A839DE49B8391E59C8394E59D839E830C
S11315E08F8382E0888750968C91509751969C9176
S11315F099878A879E2D8F2D988B8F8741E050E0A5
S1131600BE016F5E7F4FC8010E94190ABE01655F6B
S11316107F4FC7010C960E94F209AC01BE01655FC1
S11316207F4FC8010E94190A4AE050E0BE016F5F73
S11316307F4FC8010E94190A42E050E0BE01615F79
S11316407F4FC8010E94190AF80162897389A701B2
S1131650C8010E94190A81E0D8019B968C939B973C
S11316605896ED91FC915997309711F0C80109955E
S113167061960FB6F894DEBF0FBECDBFDF91CF9158
S11316801F910F91FF90EF900895CF92DF92EF9208
S1131690FF920F931F93CF93DF93CDB7DEB72A97B3
S11316A00FB6F894DEBF0FBECDBF8C016B01DB011A
S11316B00D900020E9F7FD0131977F01E61AF70A42
S11316C0198682E88A87D80192968D919C91939786
S11316D09F838887019693969C938E9392979E2DD1
S11316E08F2D9E838D8341E050E0BE01665F7F4F66
S11316F0C8010E94190ABE016F5F7F4FC70105969A
S11317000E94F209AC01BE016F5F7F4FC8010E94C5
S1131710190A42E050E0BE01695F7F4FC8010E9490
S1131720190A42E050E0BE016B5F7F4FC8010E947E
S1131730190AA701B601C8010E94190A41E050E044
S1131740BE01675F7F4FC8010E94190AF801868DA8
S1131750978D0196978F868F008CF18DE02D3097B1
S113176011F0C80109952A960FB6F894DEBF0FBE92
S1131770CDBFDF91CF911F910F91FF90EF90DF903C
S1131780CF9008958F929F92AF92BF92CF92DF92A3
S1131790EF92FF920F931F93CF93DF93CDB7DEB7F2
S11317A027970FB6F894DEBF0FBECDBF7C016B0147
S11317B04A015901DB010D900020E9F78D01015028
S11317C01109061B170B80E38F8341E050E0BE0133
S11317D0695F7F4FC7010E94190AC8010296BE01C2
S11317E06F5F7F4F8A0D9B1D0E94F209AC01BE0101
S11317F06F5F7F4FC7010E94190A1D830E8342E069
S113180050E0BE016B5F7F4FC7010E94190AA80117
S1131810B601C7010E94190AA501B401C7010E94BB
S1131820190AD7015896ED91FC915997309711F008
S1131830C701099527960FB6F894DEBF0FBECDBF3A
S1131840DF91CF911F910F91FF90EF90DF90CF9098
S1131850BF90AF909F908F9008950F931F93CF9355
S1131860DF9300D0CDB7DEB78C0180EC89831A8278
S113187042E050E0BE016F5F7F4FC8010E94190A29
S1131880D80190968D919C919197019691969C93F5
S11318908E9390975896ED91FC915997309711F04B
S11318A0C80109950F900F90DF91CF911F910F916F
S11318B008952F923F924F925F926F927F928F92F0
S11318C09F92AF92BF92CF92DF92EF92FF920F93CB
S11318D01F93CF93DF93CDB7DEB72F970FB6F8944E
S11318E0DEBF0FBECDBF8C012DB73EB73F872E871D
S11318F06C0138E0C30ED11CCE0101969F838E8308
S1131900DE011696B987A887D8011E968D919C9101
S11319101F9702970CF4E8C042E050E0BE016F5FED
S11319207F4FC6010E94620AFE0132967F01D701F1
S11319308D917D0187FF0CC0E885F985AE17BF073F
S113194039F041E050E0B701C6010E94620AEFCFCE
S1131950FE013296812C912C81E090E04081542F3D
S11319605F77589F9001599F300D1124820E931E6A
S11319709695982F8827979587952E813F81E21712
S1131980F30711F43196EACF47FDFCCFB9808DB748
S11319909EB79B878A87ADB7BEB7A819B9090FB69A
S11319A0F894BEBF0FBEADBFEDB7FEB731967F0151
S11319B0A401BF01C6010E94620A8B2D82958F701B
S11319C0833081F118F4823069F086C08930F9F0EF
S11319D08D3009F081C0F80180A191A1019791A3F4
S11319E080A37AC0D70111969C9191110BC0F80184
S11319F083A70488F589E02D309709F46DC0C801E8
S1131A0009956AC0E3E0D8019B96EC9365C0D801C0
S1131A105E968D919C915F9701975F969C938E93B0
S1131A205E975AC02DB73EB73D872C87D7016C907F
S1131A30712C762C662411968C91682AA3014F5F31
S1131A405F4FEDB7FEB7E41BF50B0FB6F894FEBF7E
S1131A500FBEEDBF2DB73EB72F5F3F4F59011401A5
S1131A6026183708210131E0431A51088DB79EB773
S1131A70841995090FB6F8949EBF0FBE8DBFADB7FC
S1131A80BEB711964D01B7016E5F7F4FC5010E942D
S1131A90D20DF501E60DF71D1082B3016E5F7F4F85
S1131AA06E0D7F1DA201C4010E94D20DF401E20D4E
S1131AB0F31D32971082D8015696ED91FC915797F9
S1131AC09201A401B501C8010995EC85FD850FB605
S1131AD0F894FEBF0FBEEDBF2A853B850FB6F89480
S1131AE03EBF0FBE2DBF10CFEE85FF850FB6F89415
S1131AF0FEBF0FBEEDBF2F960FB6F894DEBF0FBE2C
S1131B00CDBFDF91CF911F910F91FF90EF90DF90A8
S1131B10CF90BF90AF909F908F907F906F905F9089
S1131B204F903F902F900895AA1BBB1B51E107C013
S1131B30AA1FBB1FA617B70710F0A61BB70B881F59
S1131B40991F5A95A9F780959095BC01CD010895E8
S1131B5097FB072E16F4009407D077FD09D00E9456
S1131B60940D07FC05D03EF4909581959F4F089500
S1131B70709561957F4F0895A29FB001B39FC001F6
S1131B80A39F700D811D1124911DB29F700D811DA5
S1131B901124911D0895FB01DC0105900D92002094
S1131BA0E1F70895FB01DC0102C001900D92415060
S1131BB05040D8F70895FB01DC0101900D920020FC
S1131BC0E1F70895A0E0B0E0E8EEFDE00C94B91070
S1131BD0AE01475F5F4F6F8178858D819E810E9442
S1131BE0310EE2E00C94D510A0E0B0E0EAEFFDE0A5
S1131BF00C94B7100F811885F80183818860838362
S1131C00AE01455F5F4F69857A85C8010E94310E38
S1131C10F8012381277F2383E4E00C94D310AEE002
S1131C20B0E0E5E1FEE00C94B7100D891E8986E072
S1131C308C831A8309838FEF9FE79E838D83AE0184
S1131C40475E5F4F6F89788DCE0101960E94310EF9
S1131C50EF81F885E00FF11F10822E96E4E00C94DA
S1131C60D310ACE0B0E0E7E3FEE00C94A9107C01F3
S1131C706B018A01FC0117821682838181FFBDC139
S1131C80CE0101964C01F7019381F60193FD8591F4
S1131C9093FF81916F01882309F4ABC1853239F434
S1131CA093FD859193FF81916F01853229F4B701EA
S1131CB090E00E941910E7CF512C312C20E0203203
S1131CC0A0F48B3269F030F4803259F0833269F435
S1131CD020612CC08D3239F0803339F4216026C064
S1131CE02260246023C0286021C027FD27C030ED76
S1131CF0380F3A3078F426FF06C0FAE05F9E300DC4
S1131D001124532E13C08AE0389E300D1124332E33
S1131D1020620CC08E3221F426FD6BC1206406C003
S1131D208C3611F4206802C0883641F4F60193FD24
S1131D30859193FF81916F018111C1CF982F9F7D70
S1131D409554933028F40C5F1F4FFFE3F9830DC0C3
S1131D50833631F0833771F0833509F05BC022C0DC
S1131D60F801808189830E5F1F4F44244394512CD2
S1131D70540115C03801F2E06F0E711CF801A08007
S1131D80B18026FF03C0652D70E002C06FEF7FEFC6
S1131D90C5012C870E940E102C0183012C852F77FE
S1131DA0222E17C03801F2E06F0E711CF801A080DA
S1131DB0B18026FF03C0652D70E002C06FEF7FEF96
S1131DC0C5012C870E9403102C012C852068222E2B
S1131DD0830123FC1BC0832D90E048165906B0F400
S1131DE0B70180E290E00E9419103A94F4CFF50113
S1131DF027FC859127FE81915F01B70190E00E9445
S1131E00191031103A94F1E04F1A51084114510459
S1131E1071F7E5C0843611F0893639F5F80127FFEA
S1131E2007C060817181828193810C5F1F4F08C05C
S1131E3060817181882777FD8095982F0E5F1F4FF1
S1131E402F76B22E97FF09C0909580957095619575
S1131E507F4F8F4F9F4F2068B22E2AE030E0A401BD
S1131E600E944B10A82EA81844C0853729F42F7E51
S1131E70B22E2AE030E025C0F22FF97FBF2E8F3634
S1131E80C1F018F4883579F0B4C0803719F0883778
S1131E9021F0AFC02F2F2061B22EB4FE0DC08B2DC8
S1131EA08460B82E09C024FF0AC09F2F9660B92E03
S1131EB006C028E030E005C020E130E002C020E1A7
S1131EC032E0F801B7FE07C060817181828193819D
S1131ED00C5F1F4F06C06081718180E090E00E5F4F
S1131EE01F4FA4010E944B10A82EA818FB2DFF77AA
S1131EF0BF2EB6FE0BC02B2D2E7FA51450F4B4FEBE
S1131F000AC0B2FC08C02B2D2E7E05C07A2C2B2DC6
S1131F1003C07A2C01C0752C24FF0DC0FE01EA0D0C
S1131F20F11D8081803311F4297E09C022FF06C08F
S1131F307394739404C0822F867809F0739423FDFC
S1131F4013C020FF06C05A2C731418F4530C5718EE
S1131F50732C731468F4B70180E290E02C870E941C
S1131F60191073942C85F5CF731410F4371801C02D
S1131F70312C24FF12C0B70180E390E02C870E942B
S1131F8019102C8522FF17C021FF03C088E590E0BB
S1131F9002C088E790E0B7010CC0822F867859F020
S1131FA021FD02C080E201C08BE227FD8DE2B70172
S1131FB090E00E941910A51438F4B70180E390E072
S1131FC00E9419105A94F7CFAA94F401EA0DF11D56
S1131FD08081B70190E00E941910A110F5CF332041
S1131FE009F451CEB70180E290E00E9419103A94AE
S1131FF0F6CFF7018681978102C08FEF9FEF2C9671
S1132000E2E10C94C510FC01059061507040011090
S1132010D8F7809590958E0F9F1F0895FC0161500D
S1132020704001900110D8F7809590958E0F9F1FF6
S113203008950F931F93CF93DF93182F092FEB016C
S11320408B8181FD03C08FEF9FEF20C082FF10C002
S11320504E815F812C813D81421753077CF4E881D6
S1132060F9819F012F5F3F4F39832883108306C076
S1132070E885F985812F0995892B29F72E813F81E0
S11320802F5F3F4F3F832E83812F902FDF91CF917E
S11320901F910F910895FA01AA27283051F1203198
S11320A081F1E8946F936E7F6E5F7F4F8F4F9F4FE8
S11320B0AF4FB1E03ED0B4E03CD0670F781F891F2A
S11320C09A1FA11D680F791F8A1F911DA11D6A0FF8
S11320D0711D811D911DA11D20D009F468943F91AB
S11320E02AE0269F11243019305D3193DEF6CF01AA
S11320F00895462F4770405D4193B3E00FD0C9F770
S1132100F6CF462F4F70405D4A3318F0495D31FDDC
S11321104052419302D0A9F7EACFB4E0A69597952F
S1132120879577956795BA95C9F700976105710505
S113213008959B01AC010A2E06945795479537954F
S11321402795BA95C9F7620F731F841F951FA01DA9
S113215008952F923F924F925F926F927F928F9247
S11321609F92AF92BF92CF92DF92EF92FF920F9322
S11321701F93CF93DF93CDB7DEB7CA1BDB0B0FB62C
S1132180F894DEBF0FBECDBF09942A8839884888E9
S11321905F846E847D848C849B84AA84B984C8847F
S11321A0DF80EE80FD800C811B81AA81B981CE0F76
S11321B0D11D0FB6F894DEBF0FBECDBFED0108955B
S10721C0F894FFCFBD
S11321C400041301C0A801275B07000000000000FD
S11321D40000005A02960000000000C401960000AA
S11321E40000000A0066013A03F3010C0200000037
S11321F400000000000000000000000000000300D4
S11322041636DE58F6C0A801E9FFFFFF00C0A80196
S1132214010000000300000000B709C809000025FC
S1132224732025730A004C54322F574331006D61D7
S1132234696E00257500257520256C7500257520AB
S10922443020256C75003A
S9030000FC
