S011000057636F756E746572412E737265637B
S11300000C94BE000C94DB000C94DB000C94DB001D
S11300100C94DB000C94DB000C94DB000C94DB00F0
S11300200C94DB000C94DB000C94DB000C94E606CF
S11300300C94DB000C94DB000C94DB000C94DB00D0
S11300400C94DB000C94DB000C94DB000C94DB00C0
S11300500C94DB000C9427010C94DB000C94DB0063
S11300600C94DB000C94DB00746573740025732816
S1130070256C75293A202553004E6F7420636F6EEA
S11300806E65637465640A00257328256C75293AC6
S113009020255300436F6E6E65637465640A002502
S11300A07328256C75293A202553007472792074BD
S11300B06F20636F6E6E6563740A00257328256C68
S11300C075293A2025530074727920746F206F705B
S11300D0656E0A00257328256C75293A202553007E
S11300E04661696C0A00636F6E74726F6C006461C0
S11300F0746100257328256C75293A202553006DF9
S113010061696E206379636C650A00257328256C28
S113011075293A202553007365690A00257328253B
S11301206C75293A202553006E6574776F726B0ADB
S113013000257328256C75293A20255300616463D2
S11301400A00257328256C75293A202553007370FD
S1130150690A00257328256C75293A202553006304
S11301606C6F636B2025640A00257328256C752940
S11301703A20255300756172740A000011241FBED1
S1130180CFEFD8E0DEBFCDBF12E0A0E0B1E0EEE2F9
S1130190F4E202C005900D92A434B107D9F725E02A
S11301A0A4E4B2E001C01D92A639B207E1F70E94AF
S11301B0A1050C9415120C940000CF93DF93ECE787
S11301C0F0E080818F7D8083808180648083808162
S11301D0807F8083CAE7D0E08881806888838881B3
S11301E0876088838881886088838AE090E0A0E0C3
S11301F0B0E08093600290936102A0936202B09396
S113020063020E94240760935C0270935D028093F2
S11302105E0290935F0284E690E0A0E0B0E08093F9
S1130220580290935902A0935A02B0935B020E9421
S1130230240760935402709355028093560290935E
S11302405702888180648883DF91CF9108951F923B
S11302500F920FB60F9211240F931F932F933F9376
S11302604F935F936F937F938F939F93AF93BF93BA
S1130270EF93FF93809178002091790090E0922B86
S11302809093490280934802209102013091030126
S1130290582F492F2817390710F4522F432F509302
S11302A002014093030120914602309147028217D4
S11302B0930708F4C90190934702809346020E9471
S11302C0240700915C0210915D0220915E0230913E
S11302D05F02601B710B820B930B00916002109103
S11302E061022091620230916302601771078207F4
S11302F0930708F457C00E94240760935C0270932C
S11303005D0280935E0290935F0280914602909119
S11303104702909353028093520210924702109224
S1130320460280E094E090930301809302010E94CE
S113033024070091540210915502209156023091E5
S11303405702601B710B820B930B009158021091A2
S1130350590220915A0230915B026017710782079B
S11303609307C0F10E9424076093540270935502CE
S1130370809356029093570280910001909101015D
S113038060914402709145020E94770E709353026B
S113039060935202109201011092000110924502E2
S11303A01092440280917A00806480937A00FF91D5
S11303B0EF91BF91AF919F918F917F916F915F91D9
S11303C04F913F912F911F910F910F900FBE0F905E
S11303D01F90189580910001909101012091520283
S11303E030915302820F931F909301018093000177
S11303F08091440290914502019690934502809326
S11304004402D0CF2A9A229A289A209A84B18862E8
S113041084B980E58CBD8DB581608DBD08955F93F1
S11304204F937F936F9389E691E09F938F93E2E9D3
S1130430F5E081818F9380818F930E94030F8DB7A4
S11304409EB708960FB6F8949EBF0FBE8DBF089551
S1130450EF92FF920F931F93CF93DF938B01EC01E5
S1130460080F191F80E7E82E81E0F82EC017D10786
S1130470A1F089911F928F93FF92EF92809193053F
S11304808F93809192058F930E94030F0F900F908A
S11304900F900F900F900F90E9CF6091920570919B
S11304A093058AE090E0DF91CF911F910F91FF9027
S11304B0EF900C94300FCF92DF92EF92FF920F9354
S11304C01F93CF93DF937C01FC01C28DD38D46E94A
S11304D050E060E973E00E94450B6C010E94240720
S11304E0DF92CF929F938F937F936F930DE112E0EE
S11304F01F930F9328E731E03F932F938091930547
S11305008F93809192058F930E94030FB60180E927
S113051093E00E942802A60160E973E088850E94A6
S11305206D092DB73EB7245F3F4F0FB6F8943EBF19
S11305300FBE2DBF81110FC00E94240769877A87DF
S11305408B879C87DF91CF911F910F91FF90EF9044
S1130550DF90CF9008950E94240720EE30E03F936F
S11305602F939F938F937F936F931F930F9384ED98
S113057090E09F938F93809193058F938091920540
S11305808F930E94150F83E0F70183A788850E944B
S11305909E082DB73EB7245F3F4F0FB6F8943EBF79
S11305A00FBE2DBF8885DF91CF911F910F91FF90D2
S11305B0EF90DF90CF900C9438080F931F93CF9354
S11305C0DF938C01E0910401F09105016289738944
S11305D070934B0260934A02EB0109900020E9F703
S11305E02197C61BD70B80E993E00E94BE0EFE0143
S11305F0E057FC4F8FE28083B801CE018F569C4FA9
S11306000E94AE0E80E993E0DF91CF911F910F918C
S113061008950F931F93CF93DF938C01FC01C28D38
S1130620D38D86EE90E00E94DD02BC01C8010E94D9
S1130630280CF80120893189A4EFB1E00E949F0EB3
S11306406D877E878F87988B0E94240769877A87B6
S11306508B879C87F80120893189A8EEB3E00E943A
S11306609F0E6D8B7E8B8F8B988F0E942407698BD6
S11306707A8B8B8B9C8BDF91CF911F910F91089577
S11306808F929F92AF92BF92EF92FF920F931F931C
S1130690CF93DF93CDB7DEB72C970FB6F894DEBFB8
S11306A00FBECDBF8C01FC01E080F18080850E94EB
S11306B03108883109F4ADC130F4882349F0873119
S11306C009F4A4C0B1C18A51843008F0ADC1A1C1FC
S11306D00E94240727EC30E03F932F939F938F933E
S11306E07F936F938FE092E09F938F938BEB90E0D7
S11306F09F938F93809193058F93809192058F930D
S11307000E94150F40E050EC61E0F80180850E94E2
S11307104E080FB6F894DEBF0FBECDBFF80190852A
S1130720891382C183E0F70183A78FE99FE00197D2
S1130730F1F700C000000E9424072BEA30E03F9349
S11307402F939F938F937F936F939FE0E92E92E073
S1130750F92EFF92EF928FE990E09F938F9380910F
S113076093058F93809192058F930E94150FF80142
S113077046815781B8016E5F7F4F80850E94B4081F
S11307800FB6F894DEBF0FBECDBF811119C00E9411
S1130790240724E930E03F932F939F938F937F9313
S11307A06F93FF92EF9288E890E09F938F938091EC
S11307B093058F93809192058F930E94150F20C00B
S11307C00E94240729E730E03F932F939F938F9350
S11307D07F936F93FF92EF928DE690E09F938F93B8
S11307E0809193058F93809192058F930E94150FAA
S11307F0F80180850E949E08F80180850E943808CF
S11308000FB6F894DEBF0FBECDBF0EC1F70183A5AE
S1130810823059F0833009F0AAC0C7010E947D0BD1
S113082010924D0210924C02A2C00E942407F801BB
S113083081889288A388B488681979098A099B09F0
S113084085889688A788B08C681579058A059B05E4
S113085008F44FC00E942407F801618B728B838BCC
S1130860948B80914C0290914D029C012F5F3F4FDD
S113087030934D0220934C029F938F938AE891E02A
S11308809F938F939E012F5F3F4F5901BF922F93E8
S11308900E94760F0E942407BF92AF929F938F937A
S11308A07F936F938FE092E09F938F938FE891E013
S11308B09F938F93809193058F93809192058F934B
S11308C00E94030FF50101900020E9F79F012150D8
S11308D031092A193B0988E690E02B873C870E945E
S11308E0DD022B853C85A501BC01C7010E94A50C36
S11308F039C00E942407F80181849284A384B484BB
S1130900681979098A099B0985849684A784B08823
S1130910681579058A059B0550F10E942407F801A2
S11309206187728783879487F701B0A0A1A00E9492
S11309302407AF92BF929F938F937F936F938FE01F
S113094092E09F938F9380EA91E09F938F9380919D
S113095093058F93809192058F930E94030FC70193
S11309600E94100D0FB6F894DEBF0FBECDBFF70185
S113097086819781892B19F0C7010E945B02F801D7
S113098080850E94730A5C01009709F44DC00E949F
S11309902407BF92AF929F938F937F936F938FE0BF
S11309A092E09F938F9382EB91E09F938F9380913A
S11309B093058F93809192058F930E94030FA50155
S11309C060E973E0F80180850E94F4090FB6F89499
S11309D0DEBF0FBECDBF892B61F083E0F70183A793
S11309E0F80180850E949E08F80180850E943808DD
S11309F01BC0B50180E993E00E942802A50160E9CB
S1130A0073E0C70108960E94FC0AC7010E943C0DCE
S1130A100BC0F80180850E949E08F80180850E9421
S1130A20380883E0F70183A72C960FB6F894DEBF4D
S1130A300FBECDBFDF91CF911F910F91FF90EF902B
S1130A40BF90AF909F908F900895E0910401F09132
S1130A500501828D938D892B21F484E091E0938F9D
S1130A60828F84E091E00C944003EF92FF920F9305
S1130A701F93CF93DF93182F092FF62EE72EEA0149
S1130A80E0910401F091050183A5823089F50E946B
S1130A902407EF92FF920F931F939F938F937F935B
S1130AA06F93E2E0F2E0FF93EF93E7ECF1E0FF9362
S1130AB0EF93809193058F93809192058F930E9479
S1130AC0030F8DB79EB70E960FB6F8949EBF0FBE58
S1130AD08DBF9E014F2D5E2D612F702F8DE191E012
S1130AE0DF91CF911F910F91FF90EF900C94A50C83
S1130AF00E942407EF92FF920F931F939F938F936B
S1130B007F936F9382E092E09F938F9380EE91E0C6
S1130B109F938F93809193058F93809192058F93E8
S1130B200E94030F8DB79EB70E960FB6F8949EBF22
S1130B300FBE8DBFDF91CF911F910F91FF90EF906A
S1130B400895AF92BF92CF92DF92EF92FF920F93EC
S1130B501F93CF93DF93CDB7DEB72C970FB6F894DE
S1130B60DEBF0FBECDBF0E94BA0A0E94240725E74C
S1130B7031E03F932F939F938F937F936F9300E381
S1130B8012E01F930F9389E691E09F938F938091D6
S1130B9093058F93809192058F930E94150F0E9465
S1130BA00B070E9424072FE531E03F932F939F9377
S1130BB08F937F936F931F930F9383E591E09F939C
S1130BC08F93809193058F93809192058F930E94C8
S1130BD0150F0E9402020E9424072EE431E03F9385
S1130BE02F939F938F937F936F931F930F9382E41D
S1130BF091E09F938F93809193058F9380919205B9
S1130C008F930E94150F0FB6F894DEBF0FBECDBFB1
S1130C100E94DD000E9424076B017C010E942407CE
S1130C202DE331E03F932F939F938F937F936F93A3
S1130C301F930F9381E391E09F938F93809193058A
S1130C408F93809192058F930E94150F89E491E010
S1130C500E9420080E94240728E231E03F932F934A
S1130C609F938F937F936F931F930F938CE191E0E6
S1130C709F938F93809193058F93809192058F9387
S1130C800E94150F78940E94240727E131E03F93D6
S1130C902F939F938F937F936F931F930F938BE067
S1130CA091E09F938F93809193058F938091920508
S1130CB08F930E94150F0FB6F894DEBF0FBECDBF01
S1130CC00E9424072FEF30E03F932F939F938F933D
S1130CD07F936F931F930F9383EF90E09F938F9372
S1130CE0809193058F93809192058F930E94150FA5
S1130CF00FB6F894DEBF0FBECDBF8DE2A82E82E002
S1130D00B82E8E010F5F1F4F9FEFE1EEF4E091507C
S1130D10E040F040E1F700C000000E94B50A892BD2
S1130D2041F080919005909191050E94C50E833702
S1130D30D1F10E9425050E9424076C197D098E09B2
S1130D409F09643C794081059105F0F224ECC20EC0
S1130D5029E0D21EE11CF11C809153028F938091F3
S1130D6052028F93BF92AF921F930F930E94760FFC
S1130D70F80101900020E9F7AF0141505109401BEF
S1130D80510B8EEE90E04B875C870E94DD024B8511
S1130D905C85B8010E9435050F900F900F900F905D
S1130DA00F900F90B1CF80E090E02C960FB6F8949E
S1130DB0DEBF0FBECDBFDF91CF911F910F91FF908A
S1130DC0EF90DF90CF90BF90AF9008951F920F9255
S1130DD00FB60F9211248F939F93AF93BF9380917B
S1130DE04E0290914F02A0915002B091510201968F
S1130DF0A11DB11D80934E0290934F02A093500207
S1130E00B0935102BF91AF919F918F910F900FBEFC
S1130E100F901F90189510924E0210924F0210924C
S1130E20500210925102EFE6F0E0808182608083EC
S1130E30E1E8F0E080818C6080838DE790E090931E
S1130E40890080938800089560914E0270914F024A
S1130E50809150029091510208952A9808952A9AF7
S1130E6008958EBD0DB407FEFDCF8FE99FE0019775
S1130E70F1F700C000008EB508951F93CF93DF9360
S1130E8000D0CDB7DEB7182F6A8399830E942D074F
S1130E9080EF0E9431079981892F0E943107812FA9
S1130EA00E9431076A81862F0E9431070F900F90AC
S1130EB0DF91CF911F910C942F071F93CF93DF9352
S1130EC01F92CDB7DEB7182F99830E942D078FE0AC
S1130ED00E9431079981892F0E943107812F0E9436
S1130EE0310780E00E94310789830E942F0789819E
S1130EF00F90DF91CF911F91089560E880E090E01A
S1130F000E943D078FE39CE90197F1F700C00000C0
S1130F100895CF93DF93EC01009709F48DC06E859B
S1130F2081E090E00E943D076F8582E090E00E949E
S1130F303D07688983E090E00E943D07698984E069
S1130F4090E00E943D078FE99FE00197F1F700C010
S1130F500000688189E090E00E943D0769818AE091
S1130F6090E00E943D076A818BE090E00E943D077B
S1130F706B818CE090E00E943D076C818DE090E0F5
S1130F800E943D076D818EE090E00E943D078FE94D
S1130F909FE00197F1F700C000006A8585E090E0CA
S1130FA00E943D076B8586E090E00E943D076C85BA
S1130FB087E090E00E943D076D8588E090E00E9404
S1130FC03D078FE99FE00197F1F700C000006E81B3
S1130FD08FE090E00E943D076F8180E190E00E94E5
S1130FE03D07688581E190E00E943D07698582E1C3
S1130FF090E00E943D078FE99FE00197F1F700C060
S1131000000060E087E190E00E943D0768EC88E121
S113101090E00E943D0764E089E190E00E943D0772
S113102065E58AE190E00E943D0765E58BE190E08B
S11310300E943D0780E001C08FEFDF91CF910895BA
S1131040CF93DF9300D0CDB7DEB789839A830E9414
S11310507D0789819A810F900F90DF91CF910C9435
S1131060890790E0982F88278D5F9B4F0C945D072C
S1131070CF93DF93853078F4C82FD0E0DC2FCC27D2
S1131080CF5FDB4F60E1CE010E943D07CE010E949D
S11310905D078111FBCFDF91CF910895CF92DF924D
S11310A0EF92FF920F931F93CF93DF93F82EC62EE8
S11310B0E42ED52E83E08F15A8F1CF2DD0E0249611
S11310C0DC2FCC278E010D5F1F4FC8010E945D07E6
S11310D0882319F08F2D0E9438086FEFCE010296F5
S11310E00E943D076C2DCE010E943D076D2DCE015F
S11310F004960E943D076E2DCE0105960E943D0781
S1131100219661E0CE010E943D07CE010E945D0759
S11311108111FBCFC8010E945D07833129F08F2D17
S11311200E943808FF24FA948F2DDF91CF911F91EC
S11311300F91FF90EF90DF90CF900895CF93DF93BE
S1131140853078F4C82FD0E0DC2FCC27CF5FDB4F7D
S113115068E0CE010E943D07CE010E945D07811127
S1131160FBCFDF91CF9108958F929F92AF92BF9260
S1131170CF92DF92EF92FF920F931F93CF93DF935F
S1131180B82E8B01D42EC52E84E08B1508F478C0BC
S1131190CB2DD0E02496DC2FCC277E0193E0E90E02
S11311A0F11CC7010E945D07833109F069C0F80191
S11311B06081CE010C960E943D07F8016181CE0149
S11311C00D960E943D07F8016281CE010E960E94A1
S11311D03D07F8016381CE010F960E943D076C2DF7
S11311E0CE0140960E943D076D2DCE0141960E948E
S11311F03D078E010F5F1F4F64E0C8010E943D0749
S1131200C8010E945D078111FBCF00E010E0882433
S11312108A946E01F2E0CF0ED11CC5E3D2E0C7017F
S11312200E945D07982EC6010E945D07A82E8816AD
S113123091F01F928F931F929F921F930F93DF93AE
S1131240CF930E94620FEDB7FEB738960FB6F894AD
S1131250FEBF0FBEEDBF0F5F1F4FF7E19F1641F0BA
S1131260992031F0003787E1180711F08A2CD7CF85
S1131270C7010E945D07873129F08B2D0E94380831
S11312808FEF01C080E0DF91CF911F910F91FF900C
S1131290EF90DF90CF90BF90AF909F908F90089584
S11312A00F931F93CF93DF9390E00496D82FCC270E
S11312B0CE0180960E945D07082F10E0102F0027B2
S11312C0CE0181960E945D079801280F311DC90146
S11312D0DF91CF911F910F9108954F925F926F927A
S11312E07F928F929F92AF92BF92CF92DF92EF92B2
S11312F0FF920F931F93CF93DF93F82E3B018A0144
S11313004115510509F45EC083E08F1508F45AC0F5
S1131310CF2CD12C94E0C90ED11CDC2CCC24CAEEE9
S1131320D3E08F2D0E9450098017910768F48FE94C
S11313309FE00197F1F700C000002197209789F7FB
S11313408F2D0E949E083EC0460194E2890E911C96
S1131350C4010E945D07E82E560185E2A80EB11C67
S1131360C5010E945D07F12CFE2CEE24E80EF11C51
S11313702801E30137016C1A7D0A91E0491A5108EA
S1131380CE01860D971D97706991905C0E943D0770
S11313904114510491F70E0D1F1D612FC4010E94C9
S11313A03D07602FC5010E943D078FEFC81AD80A78
S11313B060E2C6010E943D07C6010E945D078111DB
S11313C0FBCF01C08FEFDF91CF911F910F91FF9061
S11313D0EF90DF90CF90BF90AF909F908F907F90D1
S11313E06F905F904F9008952F923F924F925F922B
S11313F06F927F928F929F92AF92BF92CF92DF9221
S1131400EF92FF920F931F93CF93DF931B0141152C
S1131410510509F453C0843008F050C0EA014F3F2D
S113142091E0590710F0CEEFD1E0E82EF12CE4E082
S1131430EE0EF11CFE2CEE244701F8E28F0E911CF7
S1131440C4010E945D07082F570189E2A80EB11C50
S1131450C5010E945D0710E0102F0027080F111D21
S11314606E01210138016218730891E0C91AD1088C
S1131470C201860D971D9770905A0E945D07F20174
S113148081932F01C114D10481F70C0F1D1FC20DCC
S1131490D31D1882612FC4010E943D07602FC5012E
S11314A00E943D0760E4C70101960E943D07FAE1EE
S11314B0FA95F1F700C080E090E002C08FEF90E071
S11314C0DF91CF911F910F91FF90EF90DF90CF901C
S11314D0BF90AF909F908F907F906F905F904F9050
S11314E03F902F9008950F931F93CF93DF938430F1
S11314F0A8F490E00496D82FCC27CE0186960E94BB
S11315005D07082F10E0102F0027CE0187960E9458
S11315105D079801280F311DC90102C080E090E0E9
S1131520DF91CF911F910F910895CF93C82F8A30E7
S113153019F48DE00E94950A8091C00085FFFCCFCC
S1131540C093C60080E090E0CF910895CF93BC0192
S11315508091C00087FFFCCFC091C6008C2F0E94F1
S1131560950A8C2F90E0CF9108958091C0008078E7
S113157090E008951092C50082E28093C400E0ECEC
S1131580F0E080818260808386E08093C20088E1FD
S11315908093C1008BE591E090939305809392052D
S11315A0909391058093900508950F931F93CF9383
S11315B0DF939C01EB01FB0100E810E0C901B801D5
S11315C00E948B0EAC0137FF02C021583F4F220FFF
S11315D0232F221F330B1216130614F4AC01406898
S11315E04193CF018C1B9D0B2115310539F7DF91F8
S11315F0CF911F910F910895CF92DF92EF92FF92B6
S11316000F931F93CF93DF93FC017B019A01008119
S11316101181628173816B0181E0C81AD108C00E07
S1131620D11E84819581801B910B46815781840F43
S1131630951F0E948B0EDC01A00FB11F121613061A
S1131640D4F4CA16DB0610F4A081B1818681978197
S1131650892B29F084819581A817B90761F0E701E6
S113166089917E018D9386819781019697838683E4
S113167021503109E3CFC901DF91CF911F910F911F
S1131680FF90EF90DF90CF9008950F931F93CF9327
S1131690DF93FC01828193810197C081D181C80FBE
S11316A0D91F8B0180E090E0841795070CF5268103
S11316B0378112161306E4F424813581D9012C9163
S11316C0D8012D938D01248135812F5F3F4F3583C0
S11316D02483668177816150710977836683C21799
S11316E0D30720F420813181358324830196DCCF14
S11316F0DF91CF911F910F910895EF92FF920F9375
S11317001F93CF93DF93CDB7DEB761970FB6F894ED
S1131710DEBF0FBECDBF8C01DC015296ED91FC9172
S11317205397DF010D900020E9F7CD0101977C016B
S1131730EE1AFF0AD80118968D919C9119971D965F
S11317409C938E931C971F961C921E921E978D91AC
S11317509C91119715969C938E93149717961C92AF
S11317601E9216979B961C929B9791961C921E9282
S113177090975D961C921E925C975F961C921E92A7
S11317805E9781E090E093969C938E93929780E18C
S1131790898B198284E08A839DE49B8391E59C83F1
S11317A094E59D839E838F8382E0888750968C91F5
S11317B0509751969C9199878A879E2D8F2D988B4F
S11317C08F8741E050E0BE016F5E7F4FC8010E94E9
S11317D0FC0ABE01655F7F4FC7010C960E94D50AC3
S11317E0AC01BE01655F7F4FC8010E94FC0A4AE05C
S11317F050E0BE016F5F7F4FC8010E94FC0A42E0C7
S113180050E0BE01615F7F4FC8010E94FC0AF801ED
S113181062897389A701C8010E94FC0A81E0D8018A
S11318209B968C939B975896ED91FC915997309782
S113183011F0C801099561960FB6F894DEBF0FBE8A
S1131840CDBFDF91CF911F910F91FF90EF9008953D
S1131850CF92DF92EF92FF920F931F93CF93DF9378
S1131860CDB7DEB72A970FB6F894DEBF0FBECDBF53
S11318708C016B01DB010D900020E9F7FD0131972C
S11318807F01E61AF70A198682E88A87D8019296B8
S11318908D919C9193979F838887019693969C93AF
S11318A08E9392979E2D8F2D9E838D8341E050E0E1
S11318B0BE01665F7F4FC8010E94FC0ABE016F5FD4
S11318C07F4FC70105960E94D50AAC01BE016F5F28
S11318D07F4FC8010E94FC0A42E050E0BE01695FEC
S11318E07F4FC8010E94FC0A42E050E0BE016B5FDA
S11318F07F4FC8010E94FC0AA701B601C8010E94DB
S1131900FC0A41E050E0BE01675F7F4FC8010E94BE
S1131910FC0AF801868D978D0196978F868F008C2F
S1131920F18DE02D309711F0C80109952A960FB674
S1131930F894DEBF0FBECDBFDF91CF911F910F9101
S1131940FF90EF90DF90CF9008958F929F92AF9287
S1131950BF92CF92DF92EF92FF920F931F93CF9398
S1131960DF93CDB7DEB727970FB6F894DEBF0FBE6F
S1131970CDBF7C016B014A015901DB010D900020B0
S1131980E9F78D0101501109061B170B80E38F83C2
S113199041E050E0BE01695F7F4FC7010E94FC0A2D
S11319A0C8010296BE016F5F7F4F8A0D9B1D0E9486
S11319B0D50AAC01BE016F5F7F4FC7010E94FC0ACC
S11319C01D830E8342E050E0BE016B5F7F4FC70171
S11319D00E94FC0AA801B601C7010E94FC0AA501E5
S11319E0B401C7010E94FC0AD7015896ED91FC91FD
S11319F05997309711F0C701099527960FB6F894B7
S1131A00DEBF0FBECDBFDF91CF911F910F91FF902D
S1131A10EF90DF90CF90BF90AF909F908F900895FC
S1131A200F931F93CF93DF9300D0CDB7DEB78C0114
S1131A3080EC89831A8242E050E0BE016F5F7F4FE1
S1131A40C8010E94FC0AD80190968D919C919197AF
S1131A50019691969C938E9390975896ED91FC9154
S1131A605997309711F0C80109950F900F90DF91A5
S1131A70CF911F910F9108952F923F924F925F92B1
S1131A806F927F928F929F92AF92BF92CF92DF928A
S1131A90EF92FF920F931F93CF93DF93CDB7DEB7EF
S1131AA02F970FB6F894DEBF0FBECDBF8C012DB7B4
S1131AB03EB73F872E876C0138E0C30ED11CCE01A0
S1131AC001969F838E83DE011696B987A887D80175
S1131AD01E968D919C911F9702970CF4E8C042E0EA
S1131AE050E0BE016F5F7F4FC6010E94450BFE01AF
S1131AF032967F01D7018D917D0187FF0CC0E88567
S1131B00F985AE17BF0739F041E050E0B701C601CF
S1131B100E94450BEFCFFE013296812C912C81E07F
S1131B2090E04081542F5F77589F9001599F300D6A
S1131B301124820E931E9695982F88279795879542
S1131B402E813F81E217F30711F43196EACF47FD66
S1131B50FCCFB9808DB79EB79B878A87ADB7BEB7D8
S1131B60A819B9090FB6F894BEBF0FBEADBFEDB743
S1131B70FEB731967F01A401BF01C6010E94450B47
S1131B808B2D82958F70833081F118F4823069F047
S1131B9086C08930F9F08D3009F081C0F80180A148
S1131BA091A1019791A380A37AC0D70111969C912A
S1131BB091110BC0F80183A70488F589E02D3097B3
S1131BC009F46DC0C80109956AC0E3E0D8019B9689
S1131BD0EC9365C0D8015E968D919C915F970197B7
S1131BE05F969C938E935E975AC02DB73EB73D8700
S1131BF02C87D7016C90712C762C662411968C91CD
S1131C00682AA3014F5F5F4FEDB7FEB7E41BF50BE6
S1131C100FB6F894FEBF0FBEEDBF2DB73EB72F5FD2
S1131C203F4F5901140126183708210131E0431AA6
S1131C3051088DB79EB7841995090FB6F8949EBFC5
S1131C400FBE8DBFADB7BEB711964D01B7016E5F24
S1131C507F4FC5010E94B50EF501E60DF71D1082F8
S1131C60B3016E5F7F4F6E0D7F1DA201C4010E9400
S1131C70B50EF401E20DF31D32971082D801569689
S1131C80ED91FC9157979201A401B501C801099502
S1131C90EC85FD850FB6F894FEBF0FBEEDBF2A8517
S1131CA03B850FB6F8943EBF0FBE2DBF10CFEE8517
S1131CB0FF850FB6F894FEBF0FBEEDBF2F960FB68B
S1131CC0F894DEBF0FBECDBFDF91CF911F910F916E
S1131CD0FF90EF90DF90CF90BF90AF909F908F9048
S1131CE07F906F905F904F903F902F900895AA1B24
S1131CF0BB1B51E107C0AA1FBB1FA617B70710F0F3
S1131D00A61BB70B881F991F5A95A9F78095909524
S1131D10BC01CD01089597FB072E16F4009407D05B
S1131D2077FD09D00E94770E07FC05D03EF490950C
S1131D3081959F4F0895709561957F4F0895A29F57
S1131D40B001B39FC001A39F700D811D1124911D8B
S1131D50B29F700D811D1124911D0895FB01DC01BA
S1131D6005900D920020E1F70895FB01DC0102C00B
S1131D7001900D9241505040D8F70895FB01DC01C9
S1131D8001900D920020E1F70895CF93DF93EC01C9
S1131D902B8120FF33C026FF0AC02F7B2B838E812B
S1131DA09F8101969F838E838A8190E029C022FFC0
S1131DB00FC0E881F9818081992787FD909500976C
S1131DC019F420622B831AC03196F983E8830EC07C
S1131DD0EA85FB85099597FF09C02B81019611F4CB
S1131DE080E101C080E2822B8B8308C02E813F8179
S1131DF02F5F3F4F3F832E83992702C08FEF9FEFC2
S1131E00DF91CF910895A0E0B0E0E9E0FFE00C9409
S1131E10EE11AE01475F5F4F6F8178858D819E81A2
S1131E200E94980FE2E00C940A12A0E0B0E0EBE10B
S1131E30FFE00C94EC110F811885F8018381886010
S1131E408383AE01455F5F4F69857A85C8010E942F
S1131E50980FF8012381277F2383E4E00C94081270
S1131E600F931F93CF93DF93182F092FEB018B81CF
S1131E7081FD03C08FEF9FEF20C082FF10C04E8111
S1131E805F812C813D81421753077CF4E881F981FD
S1131E909F012F5F3F4F39832883108306C0E88555
S1131EA0F985812F0995892B29F72E813F812F5F91
S1131EB03F4F3F832E83812F902FDF91CF911F912E
S1131EC00F910895A0E0B0E0E8E6FFE00C94EE1175
S1131ED0FE01359661917191AF01809192059091C7
S1131EE093050E94980FE2E00C940A12AEE0B0E071
S1131EF0ECE7FFE00C94EC110D891E8986E08C83DD
S1131F001A8309838FEF9FE79E838D83AE01475E1B
S1131F105F4F6F89788DCE0101960E94980FEF81F3
S1131F20F885E00FF11F10822E96E4E00C9408125D
S1131F30ACE0B0E0EEE9FFE00C94DE117C016B0153
S1131F408A01FC0117821682838181FFBDC1CE0103
S1131F5001964C01F7019381F60193FD859193FF5E
S1131F6081916F01882309F4ABC1853239F493FD63
S1131F70859193FF81916F01853229F4B70190E037
S1131F800E94300FE7CF512C312C20E02032A0F4F6
S1131F908B3269F030F4803259F0833269F4206175
S1131FA02CC08D3239F0803339F4216026C0226090
S1131FB0246023C0286021C027FD27C030ED380FDE
S1131FC03A3078F426FF06C0FAE05F9E300D112403
S1131FD0532E13C08AE0389E300D1124332E206214
S1131FE00CC08E3221F426FD6BC1206406C08C36F1
S1131FF011F4206802C0883641F4F60193FD8591FE
S113200093FF81916F018111C1CF982F9F7D9554CA
S1132010933028F40C5F1F4FFFE3F9830DC0833620
S113202031F0833771F0833509F05BC022C0F801C9
S1132030808189830E5F1F4F44244394512C5401A3
S113204015C03801F2E06F0E711CF801A080B18058
S113205026FF03C0652D70E002C06FEF7FEFC5015E
S11320602C870E9475112C0183012C852F77222E39
S113207017C03801F2E06F0E711CF801A080B18026
S113208026FF03C0652D70E002C06FEF7FEFC5012E
S11320902C870E946A112C012C852068222E830132
S11320A023FC1BC0832D90E048165906B0F4B701F9
S11320B080E290E00E94300F3A94F4CFF50127FCBF
S11320C0859127FE81915F01B70190E00E94300F56
S11320D031103A94F1E04F1A51084114510471F748
S11320E0E5C0843611F0893639F5F80127FF07C0B9
S11320F060817181828193810C5F1F4F08C0608170
S11321007181882777FD8095982F0E5F1F4F2F765A
S1132110B22E97FF09C090958095709561957F4F79
S11321208F4F9F4F2068B22E2AE030E0A4010E9416
S11321308011A82EA81844C0853729F42F7EB22E0A
S11321402AE030E025C0F22FF97FBF2E8F36C1F090
S113215018F4883579F0B4C0803719F0883721F045
S1132160AFC02F2F2061B22EB4FE0DC08B2D846022
S1132170B82E09C024FF0AC09F2F9660B92E06C04E
S113218028E030E005C020E130E002C020E132E088
S1132190F801B7FE07C060817181828193810C5F71
S11321A01F4F06C06081718180E090E00E5F1F4F79
S11321B0A4010E948011A82EA818FB2DFF77BF2E22
S11321C0B6FE0BC02B2D2E7FA51450F4B4FE0AC00E
S11321D0B2FC08C02B2D2E7E05C07A2C2B2D03C0FB
S11321E07A2C01C0752C24FF0DC0FE01EA0DF11DEF
S11321F08081803311F4297E09C022FF06C07394C4
S1132200739404C0822F867809F0739423FD13C05D
S113221020FF06C05A2C731418F4530C5718732C4F
S1132220731468F4B70180E290E02C870E94300FA9
S113223073942C85F5CF731410F4371801C0312C26
S113224024FF12C0B70180E390E02C870E94300F76
S11322502C8522FF17C021FF03C088E590E002C04F
S113226088E790E0B7010CC0822F867859F021FDF1
S113227002C080E201C08BE227FD8DE2B70190E04D
S11322800E94300FA51438F4B70180E390E00E9457
S1132290300F5A94F7CFAA94F401EA0DF11D80810E
S11322A0B70190E00E94300FA110F5CF332009F45C
S11322B051CEB70180E290E00E94300F3A94F6CFFD
S11322C0F7018681978102C08FEF9FEF2C96E2E1A0
S11322D00C94FA11FC010590615070400110D8F77C
S11322E0809590958E0F9F1F0895FC01615070405A
S11322F001900110D8F7809590958E0F9F1F089537
S1132300FA01AA27283051F1203181F1E8946F9322
S11323106E7F6E5F7F4F8F4F9F4FAF4FB1E03ED0C8
S1132320B4E03CD0670F781F891F9A1FA11D680F66
S1132330791F8A1F911DA11D6A0F711D811D911D99
S1132340A11D20D009F468943F912AE0269F11240E
S11323503019305D3193DEF6CF010895462F477072
S1132360405D4193B3E00FD0C9F7F6CF462F4F70CD
S1132370405D4A3318F0495D31FD4052419302D02B
S1132380A9F7EACFB4E0A6959795879577956795D1
S1132390BA95C9F700976105710508959B01AC01D1
S11323A00A2E06945795479537952795BA95C9F7F8
S11323B0620F731F841F951FA01D08952F923F92D3
S11323C04F925F926F927F928F929F92AF92BF9241
S11323D0CF92DF92EF92FF920F931F93CF93DF93ED
S11323E0CDB7DEB7CA1BDB0B0FB6F894DEBF0FBE4A
S11323F0CDBF09942A88398848885F846E847D8497
S11324008C849B84AA84B984C884DF80EE80FD8098
S11324100C811B81AA81B981CE0FD11D0FB6F8940E
S1112420DEBF0FBECDBFED010895F894FFCFCF
S113242E000400041D01C0A801275B070000000082
S113243E00000000000000000000000000FA0296F8
S113244E000000000064029600000000000A00FA7A
S113245E0109030F025B02000000000000000000EF
S113246E000000000000000003001636DE58F6C01F
S113247EA801E9FFFFFF00C0A8010100000003004E
S113248E000000950AA60A000025732025730A0091
S113249E3078253032782000257328256C75293A3A
S11324AE2073656E643A256420002530356400255A
S11324BE7328256C75293A207075622025730A00DD
S11324CE257328256C75293A2070696E672025645A
S11324DE0A00257328256C75293A2072656365698F
S11324EE76653A25642000257328256C75293A20D3
S11324FE7075623A205B25735D203C25733E0A009D
S113250E257328256C75293A20217075623A205B53
S113251E25735D203C25733E0A004C54322F5743DD
S113252E31006D7174745F7075626C697368006DDF
S113253E7174745F657865635F696E74006D717430
S113254E745F6E65775F7061636B657400257500EB
S113255E6D61696E0025643A253032782D2530324E
S107256E78200000CD
S9030000FC
