S011000057636F756E746572412E737265637B
S11300000C944D000C946A000C946A000C946A00E1
S11300100C946A000C946A000C946A000C946A00B4
S11300200C946A000C946A000C946A000C941B03F0
S11300300C946A000C946A000C946A000C946A0094
S11300400C946A000C946A000C946A000C946A0084
S11300500C946A000C946A000C946A000C946A0074
S11300600C946A000C946A00436F6E6E6563746549
S1130070640A0074727920746F20636F6E6E656316
S1130080740A002E350A002E34002E33002E32005E
S11300905374617274757020310011241FBECFEF48
S11300A0D8E0DEBFCDBF11E0A0E0B1E0EAEEFCE1B4
S11300B002C005900D92A03FB107D9F725E0A0EF4B
S11300C0B1E001C01D92A832B207E1F70E94CF024D
S11300D00C94730E0C9400002A9A229A289A209A5F
S11300E084B1886284B980E58CBD8DB581608DBD95
S11300F008955F934F937F936F9385E691E09F9369
S11301008F930E94650B0F900F900F900F900F909C
S11301100F9008950F931F93CF93DF938C01FC01ED
S1130120C28DD38D6CE671E00E945D086091240558
S11301307091250584E791E00E943C0BF801208929
S11301403189AAE0B0E00E94C00A6D877E878F875C
S1130150988B0E94590369877A878B879C87F8015B
S113016020893189A4E1B0E00E94C00A6D8B7E8BA6
S11301708F8B988F0E945903698B7A8B8B8B9C8B06
S1130180DF91CF911F910F910895EF92FF920F93FA
S11301901F93CF93DF9300D0CDB7DEB78C01FC0162
S11301A0E28CF38C46E950E062E273E00E947A0745
S11301B0AC015F938F932FE731E03F932F938091AE
S11301C025058F93809124058F9349835A830E9438
S11301D02A0B49815A8162E273E0F70180850E940B
S11301E0A2050F900F900F900F900F900F90811118
S11301F017C00E945903F701618772878387948728
S1130200609124057091250588E891E00F900F9086
S1130210DF91CF911F910F91FF90EF900C943C0BC5
S113022060912405709125058DE891E00E943C0BB6
S113023083E0F80183A7F70180850E94D304F701C6
S113024080850F900F90DF91CF911F910F91FF90B8
S1130250EF900C946D04EF92FF920F931F93CF9342
S1130260DF938B01EC01080F191F83E9E82E81E06D
S1130270F82EC017D10761F089911F928F93FF92D6
S1130280EF920E94650B0F900F900F900F90F1CF9B
S11302908AE090E0DF91CF911F910F91FF90EF9052
S11302A00C949B0B8F929F92AF92BF92EF92FF920E
S11302B00F931F93CF93DF93CDB7DEB72A970FB673
S11302C0F894DEBF0FBECDBF8C01FC01E080F1804D
S11302D080850E946604883109F435C130F488238E
S11302E049F0873109F444C039C18A51843008F097
S11302F035C129C160912405709125058BE991E0F0
S11303000E943C0B40E050EC61E0F80180850E94C3
S11303108304F8019085891321C18FE99FE0019737
S1130320F1F700C0000083E790E09F938F930E9451
S1130330790BF80146815781B8016E5F7F4F808544
S11303400E94E9040F900F90811109C088E690E0A3
S11303509F938F930E94790B0F900F90FFC0609131
S113036024057091250588EA91E00E943C0BD2C0D7
S1130370F70183A5823059F0833009F09BC0C7018F
S11303800E94B2071092F1011092F00193C00E94F2
S11303905903F80181889288A388B4886819790977
S11303A08A099B0985889688A788B08C6815790581
S11303B08A059B0508F449C00E945903F801618B22
S11303C0728B838B948B0E945903F8016187728727
S11303D0838794878091F0019091F1019C012F5FB4
S11303E03F4F3093F1012093F0019F938F9387EB5C
S11303F091E09F938F93CE0101965C01BF928F93FE
S11304000E94A20BBF92AF928CEB91E09F938F93CB
S1130410809125058F93809124058F930E942A0B48
S1130420F50101900020E9F79F01215031092A19B3
S11304303B09A50164EC71E0C7010E94DA080FB61C
S1130440F894DEBF0FBECDBF35C00E945903F8013A
S113045081849284A384B484681979098A099B09E4
S113046085849684A784B088681579058A059B05D8
S113047008F10E945903F801618772878387948782
S1130480F70181A18F9380A18F9389EC91E09F93D1
S11304908F93809125058F93809124058F930E94DB
S11304A02A0BC7010E9445090F900F900F900F90DF
S11304B00F900F90F70186819781892B19F0C7015E
S11304C00E94C500F80180850E94A8065C0100977F
S11304D009F444C0BF928F9382ED91E09F938F9370
S11304E0809125058F93809124058F930E942A0B78
S11304F0A50162E273E0F80180850E9429060F904D
S11305000F900F900F900F900F90892B61F083E064
S1130510F70183A7F80180850E94D304F801808540
S11305200E946D041BC0B50182E293E00E942B017E
S1130530A50162E273E0C70108960E943107C70172
S11305400E9471090BC0F80180850E94D304F80150
S113055080850E946D0483E0F70183A72A960FB675
S1130560F894DEBF0FBECDBFDF91CF911F910F91E5
S1130570FF90EF90BF90AF909F908F900895E0917F
S11305800001F0910101828D938D892B21F480E08B
S113059091E0938F828F80E091E00C9452010E944D
S11305A040030E94EF0680E990E09F938F930E949E
S11305B0790B0E946C008DE890E09F938F930E94CA
S11305C0790B85E491E00E9455048AE890E09F93BA
S11305D08F930E94790B87E890E09F938F930E94FA
S11305E0790B789483E890E09F938F930E94790B22
S11305F08DB79EB70A960FB6F8949EBF0FBE8DBFF7
S11306009FEF21EE84E0915020408040E1F700C04C
S113061000000E94EA06892B41F080912205909106
S113062023050E94EC0A833619F00E94BF02E8CF2A
S113063080E090E008951F920F920FB60F9211245C
S11306408F939F93AF93BF938091F2019091F301A5
S1130650A091F401B091F5010196A11DB11D809303
S1130660F2019093F301A093F401B093F501BF91CB
S1130670AF919F918F910F900FBE0F901F9018957F
S11306801092F2011092F3011092F4011092F5010C
S1130690EFE6F0E0808182608083E1E8F0E0808131
S11306A08C6080838AE698E1909389008093880027
S11306B008956091F2017091F3018091F401909199
S11306C0F50108952A9808952A9A08958EBD0DB4C7
S11306D007FEFDCF8FE99FE00197F1F700C000000E
S11306E08EB508951F93CF93DF9300D0CDB7DEB7B7
S11306F0182F6A8399830E94620380EF0E94660325
S11307009981892F0E946603812F0E9466036A8162
S1130710862F0E9466030F900F90DF91CF911F9157
S11307200C9464031F93CF93DF931F92CDB7DEB76E
S1130730182F99830E9462038FE00E9466039981B7
S1130740892F0E946603812F0E94660380E00E9425
S1130750660389830E94640389810F90DF91CF919E
S11307601F91089560E880E090E00E9472038FE397
S11307709CE90197F1F700C000000895CF93DF933F
S1130780EC01009709F48DC06E8581E090E00E9431
S113079072036F8582E090E00E947203688983E0AF
S11307A090E00E947203698984E090E00E947203E1
S11307B08FE99FE00197F1F700C00000688189E0AC
S11307C090E00E94720369818AE090E00E947203C3
S11307D06A818BE090E00E9472036B818CE090E070
S11307E00E9472036C818DE090E00E9472036D811F
S11307F08EE090E00E9472038FE99FE00197F1F789
S113080000C000006A8585E090E00E9472036B8559
S113081086E090E00E9472036C8587E090E00E947D
S113082072036D8588E090E00E9472038FE99FE077
S11308300197F1F700C000006E818FE090E00E9404
S113084072036F8180E190E00E947203688581E108
S113085090E00E947203698582E190E00E94720335
S11308608FE99FE00197F1F700C0000060E087E1A5
S113087090E00E94720368EC88E190E00E947203A9
S113088064E089E190E00E94720365E58AE190E00A
S11308900E94720365E58BE190E00E94720380E0A0
S11308A001C08FEFDF91CF910895CF93DF9300D0F4
S11308B0CDB7DEB789839A830E94B20389819A8176
S11308C00F900F90DF91CF910C94BE0390E0982F7E
S11308D088278D5F9B4F0C949203CF93DF938530D1
S11308E078F4C82FD0E0DC2FCC27CF5FDB4F60E15A
S11308F0CE010E947203CE010E9492038111FBCFAC
S1130900DF91CF910895CF92DF92EF92FF920F93F0
S11309101F93CF93DF93F82EC62EE42ED52E83E0BB
S11309208F15A8F1CF2DD0E02496DC2FCC278E0193
S11309300D5F1F4FC8010E949203882319F08F2D69
S11309400E946D046FEFCE0102960E9472036C2D1B
S1130950CE010E9472036D2DCE0104960E94720393
S11309606E2DCE0105960E947203219661E0CE01A0
S11309700E947203CE010E9492038111FBCFC80131
S11309800E949203833129F08F2D0E946D04FF246D
S1130990FA948F2DDF91CF911F910F91FF90EF90DB
S11309A0DF90CF900895CF93DF93853078F4C82FEC
S11309B0D0E0DC2FCC27CF5FDB4F68E0CE010E9474
S11309C07203CE010E9492038111FBCFDF91CF917C
S11309D008958F929F92AF92BF92CF92DF92EF923F
S11309E0FF920F931F93CF93DF93B82E8B01D42ED6
S11309F0C52E84E08B1508F478C0CB2DD0E0249666
S1130A00DC2FCC277E0193E0E90EF11CC7010E9484
S1130A109203833109F069C0F8016081CE010C961C
S1130A200E947203F8016181CE010D960E94720347
S1130A30F8016281CE010E960E947203F80163816F
S1130A40CE010F960E9472036C2DCE0140960E9437
S1130A5072036D2DCE0141960E9472038E010F5FC9
S1130A601F4F64E0C8010E947203C8010E949203F0
S1130A708111FBCF00E010E088248A946E01F2E03B
S1130A80CF0ED11CC2EED1E0C7010E949203982E72
S1130A90C6010E949203A82E881691F01F928F938C
S1130AA01F929F921F930F93DF93CF930E94650B26
S1130AB0EDB7FEB738960FB6F894FEBF0FBEEDBF84
S1130AC00F5F1F4FF7E19F1641F0992031F0003777
S1130AD087E1180711F08A2CD7CFC7010E9492032F
S1130AE0873129F08B2D0E946D048FEF01C080E0C7
S1130AF0DF91CF911F910F91FF90EF90DF90CF90F6
S1130B00BF90AF909F908F9008950F931F93CF93B2
S1130B10DF9390E00496D82FCC27CE0180960E94D4
S1130B209203082F10E0102F0027CE0181960E9417
S1130B3092039801280F311DC901DF91CF911F91B4
S1130B400F9108954F925F926F927F928F929F922E
S1130B50AF92BF92CF92DF92EF92FF920F931F93C7
S1130B60CF93DF93F82E3B018A014115510509F417
S1130B705EC083E08F1508F45AC0CF2CD12C94E0CA
S1130B80C90ED11CDC2CCC24CAEED3E08F2D0E94DC
S1130B9085058017910768F48FE99FE00197F1F7C5
S1130BA000C000002197209789F78F2D0E94D3045D
S1130BB03EC0460194E2890E911CC4010E94920336
S1130BC0E82E560185E2A80EB11CC5010E949203CD
S1130BD0F12CFE2CEE24E80EF11C2801E301370170
S1130BE06C1A7D0A91E0491A5108CE01860D971DB1
S1130BF097706991905C0E9472034114510491F7BB
S1130C000E0D1F1D612FC4010E947203602FC501C8
S1130C100E9472038FEFC81AD80A60E2C6010E94CC
S1130C207203C6010E9492038111FBCF01C08FEFB2
S1130C30DF91CF911F910F91FF90EF90DF90CF90B4
S1130C40BF90AF909F908F907F906F905F904F90E8
S1130C5008952F923F924F925F926F927F928F925C
S1130C609F92AF92BF92CF92DF92EF92FF920F9337
S1130C701F93CF93DF931B014115510509F453C012
S1130C80843008F050C0EA014F3F91E0590710F05A
S1130C90CEEFD1E0E82EF12CE4E0EE0EF11CFE2CB8
S1130CA0EE244701F8E28F0E911CC4010E949203C6
S1130CB0082F570189E2A80EB11CC5010E949203B6
S1130CC010E0102F0027080F111D6E0121013801BB
S1130CD06218730891E0C91AD108C201860D971DE4
S1130CE09770905A0E949203F20181932F01C114CC
S1130CF0D10481F70C0F1D1FC20DD31D1882612F63
S1130D00C4010E947203602FC5010E94720360E453
S1130D10C70101960E947203FAE1FA95F1F700C047
S1130D2080E090E002C08FEF90E0DF91CF911F91BF
S1130D300F91FF90EF90DF90CF90BF90AF909F9076
S1130D408F907F906F905F904F903F902F90089579
S1130D500F931F93CF93DF938430A8F490E004960D
S1130D60D82FCC27CE0186960E949203082F10E03C
S1130D70102F0027CE0187960E9492039801280F16
S1130D80311DC90102C080E090E0DF91CF911F9135
S1130D900F910895CF93C82F8A3019F48DE00E94E3
S1130DA0CA068091C00085FFFCCFC093C60080E0D6
S1130DB090E0CF910895CF93BC018091C00087FF4C
S1130DC0FCCFC091C6008C2F0E94CA068C2F90E0E5
S1130DD0CF9108958091C000807890E0089510929A
S1130DE0C50082E28093C400E0ECF0E08081826080
S1130DF0808386E08093C20088E18093C10087E508
S1130E0091E0909325058093240590932305809386
S1130E10220508950F931F93CF93DF939C01EB0159
S1130E20FB0100E810E0C901B8010E94AC0AAC0162
S1130E3037FF02C021583F4F220F232F221F330BAD
S1130E401216130614F4AC0140684193CF018C1BB5
S1130E509D0B2115310539F7DF91CF911F910F912A
S1130E600895CF92DF92EF92FF920F931F93CF9347
S1130E70DF93FC017B019A010081118162817381FE
S1130E806B0181E0C81AD108C00ED11E84819581FE
S1130E90801B910B46815781840F951F0E94AC0AD9
S1130EA0DC01A00FB11F12161306D4F4CA16DB0618
S1130EB010F4A081B18186819781892B29F08481E6
S1130EC09581A817B90761F0E70189917E018D9397
S1130ED08681978101969783868321503109E3CFD8
S1130EE0C901DF91CF911F910F91FF90EF90DF9097
S1130EF0CF9008950F931F93CF93DF93FC018281CA
S1130F0093810197C081D181C80FD91F8B0180E0E3
S1130F1090E0841795070CF5268137811216130685
S1130F20E4F424813581D9012C91D8012D938D01CC
S1130F30248135812F5F3F4F3583248366817781F8
S1130F406150710977836683C217D30720F4208127
S1130F503181358324830196DCCFDF91CF911F91BA
S1130F600F910895EF92FF920F931F93CF93DF9306
S1130F70CDB7DEB761970FB6F894DEBF0FBECDBF15
S1130F808C01DC015296ED91FC915397DF010D9099
S1130F900020E9F7CD0101977C01EE1AFF0AD80180
S1130FA018968D919C9119971D969C938E931C97DE
S1130FB01F961C921E921E978D919C9111971596C7
S1130FC09C938E93149717961C921E9216979B9639
S1130FD01C929B9791961C921E9290975D961C92E0
S1130FE01E925C975F961C921E925E9781E090E041
S1130FF093969C938E93929780E1898B198284E0D7
S11310008A839DE49B8391E59C8394E59D839E83E1
S11310108F8382E0888750968C91509751969C914B
S113102099878A879E2D8F2D988B8F8741E050E07A
S1131030BE016F5E7F4FC8010E943107BE01655F2C
S11310407F4FC7010C960E940A07AC01BE01655F81
S11310507F4FC8010E9431074AE050E0BE016F5F34
S11310607F4FC8010E94310742E050E0BE01615F3A
S11310707F4FC8010E943107F80162897389A70173
S1131080C8010E94310781E0D8019B968C939B97FD
S11310905896ED91FC915997309711F0C801099534
S11310A061960FB6F894DEBF0FBECDBFDF91CF912E
S11310B01F910F91FF90EF900895CF92DF92EF92DE
S11310C0FF920F931F93CF93DF93CDB7DEB72A9789
S11310D00FB6F894DEBF0FBECDBF8C016B01DB01F0
S11310E00D900020E9F7FD0131977F01E61AF70A18
S11310F0198682E88A87D80192968D919C9193975C
S11311009F838887019693969C938E9392979E2DA6
S11311108F2D9E838D8341E050E0BE01665F7F4F3B
S1131120C8010E943107BE016F5F7F4FC70105965A
S11311300E940A07AC01BE016F5F7F4FC8010E9485
S1131140310742E050E0BE01695F7F4FC8010E9451
S1131150310742E050E0BE016B5F7F4FC8010E943F
S11311603107A701B601C8010E94310741E050E0F0
S1131170BE01675F7F4FC8010E943107F801868D69
S1131180978D0196978F868F008CF18DE02D309787
S113119011F0C80109952A960FB6F894DEBF0FBE68
S11311A0CDBFDF91CF911F910F91FF90EF90DF9012
S11311B0CF9008958F929F92AF92BF92CF92DF9279
S11311C0EF92FF920F931F93CF93DF93CDB7DEB7C8
S11311D027970FB6F894DEBF0FBECDBF7C016B011D
S11311E04A015901DB010D900020E9F78D010150FE
S11311F01109061B170B80E38F8341E050E0BE0109
S1131200695F7F4FC7010E943107C8010296BE0182
S11312106F5F7F4F8A0D9B1D0E940A07AC01BE01C0
S11312206F5F7F4FC7010E9431071D830E8342E029
S113123050E0BE016B5F7F4FC7010E943107A801D8
S1131240B601C7010E943107A501B401C7010E947C
S11312503107D7015896ED91FC915997309711F0C9
S1131260C701099527960FB6F894DEBF0FBECDBF10
S1131270DF91CF911F910F91FF90EF90DF90CF906E
S1131280BF90AF909F908F9008950F931F93CF932B
S1131290DF9300D0CDB7DEB78C0180EC89831A824E
S11312A042E050E0BE016F5F7F4FC8010E943107EA
S11312B0D80190968D919C919197019691969C93CB
S11312C08E9390975896ED91FC915997309711F021
S11312D0C80109950F900F90DF91CF911F910F9145
S11312E008952F923F924F925F926F927F928F92C6
S11312F09F92AF92BF92CF92DF92EF92FF920F93A1
S11313001F93CF93DF93CDB7DEB72F970FB6F89423
S1131310DEBF0FBECDBF8C012DB73EB73F872E87F2
S11313206C0138E0C30ED11CCE0101969F838E83DD
S1131330DE011696B987A887D8011E968D919C91D7
S11313401F9702970CF4E8C042E050E0BE016F5FC3
S11313507F4FC6010E947A07FE0132967F01D701B2
S11313608D917D0187FF0CC0E885F985AE17BF0715
S113137039F041E050E0B701C6010E947A07EFCF8F
S1131380FE013296812C912C81E090E04081542F13
S11313905F77589F9001599F300D1124820E931E40
S11313A09695982F8827979587952E813F81E217E8
S11313B0F30711F43196EACF47FDFCCFB9808DB71E
S11313C09EB79B878A87ADB7BEB7A819B9090FB670
S11313D0F894BEBF0FBEADBFEDB7FEB731967F0127
S11313E0A401BF01C6010E947A078B2D82958F70DC
S11313F0833081F118F4823069F086C08930F9F0C5
S11314008D3009F081C0F80180A191A1019791A3C9
S113141080A37AC0D70111969C9191110BC0F80159
S113142083A70488F589E02D309709F46DC0C801BD
S113143009956AC0E3E0D8019B96EC9365C0D80196
S11314405E968D919C915F9701975F969C938E9386
S11314505E975AC02DB73EB73D872C87D7016C9055
S1131460712C762C662411968C91682AA3014F5F07
S11314705F4FEDB7FEB7E41BF50B0FB6F894FEBF54
S11314800FBEEDBF2DB73EB72F5F3F4F590114017B
S113149026183708210131E0431A51088DB79EB749
S11314A0841995090FB6F8949EBF0FBE8DBFADB7D2
S11314B0BEB711964D01B7016E5F7F4FC5010E9403
S11314C0E30AF501E60DF71D1082B3016E5F7F4F4D
S11314D06E0D7F1DA201C4010E94E30AF401E20D16
S11314E0F31D32971082D8015696ED91FC915797CF
S11314F09201A401B501C8010995EC85FD850FB6DB
S1131500F894FEBF0FBEEDBF2A853B850FB6F89455
S11315103EBF0FBE2DBF10CFEE85FF850FB6F894EA
S1131520FEBF0FBEEDBF2F960FB6F894DEBF0FBE01
S1131530CDBFDF91CF911F910F91FF90EF90DF907E
S1131540CF90BF90AF909F908F907F906F905F905F
S11315504F903F902F90089597FB072E16F4009418
S113156007D077FD09D00E94CF0A07FC05D03EF4CE
S1131570909581959F4F0895709561957F4F08953B
S1131580A29FB001B39FC001A39F700D811D1124C0
S1131590911DB29F700D811D1124911D0895AA1BE8
S11315A0BB1B51E107C0AA1FBB1FA617B70710F04A
S11315B0A61BB70B881F991F5A95A9F7809590957C
S11315C0BC01CD010895FB01DC0102C001900D9224
S11315D041505040D8F70895CF93DF93EC012B810D
S11315E020FF33C026FF0AC02F7B2B838E819F816F
S11315F001969F838E838A8190E029C022FF0FC0C9
S1131600E881F9818081992787FD9095009719F4E5
S113161020622B831AC03196F983E8830EC0EA85D1
S1131620FB85099597FF09C02B81019611F480E190
S113163001C080E2822B8B8308C02E813F812F5F03
S11316403F4F3F832E83992702C08FEF9FEFDF9197
S1131650CF910895A0E0B0E0E0E3FBE00C944C0EE1
S1131660AE01475F5F4F6F8178858D819E810E94B7
S1131670C40BE2E00C94680EEF92FF920F931F9359
S1131680CF93DF938B01DB0113962C9121FF16C0BE
S1131690EC01E12CF12C8991882371F0D801189682
S11316A0ED91FC911997B8010995892BA1F3EE24CA
S11316B0EA94FF24FA94EFCFC70102C08FEF9FEFA3
S11316C0CDB7DEB7E6E00C94640EA0E0B0E0EBE644
S11316D0FBE00C944C0EFE01359661917191AF01C3
S11316E080912405909125050E94C40BE2E00C949E
S11316F0680EA0E0B0E0EFE7FBE00C944A0EFE01B8
S113170037966191719104E215E0D8018D919C9115
S1131710DC0113962C911397286013962C93AF0138
S11317200E94C40BD801ED91FC912381277F238370
S1131730E4E00C94660E60912405709125050E94E6
S1131740AC0D0895AEE0B0E0E8EAFBE00C944A0E7C
S11317500D891E8986E08C831A8309838FEF9FE7A6
S11317609E838D83AE01475E5F4F6F89788DCE0176
S113177001960E94C40BEF81F885E00FF11F1082DF
S11317802E96E4E00C94660EACE0B0E0EAECFBE0EC
S11317900C943C0E7C016B018A01FC0117821682B9
S11317A0838181FFBDC1CE0101964C01F701938174
S11317B0F60193FD859193FF81916F01882309F4CC
S11317C0ABC1853239F493FD859193FF81916F010B
S11317D0853229F4B70190E00E94AC0DE7CF512C7B
S11317E0312C20E02032A0F48B3269F030F48032C6
S11317F059F0833269F420612CC08D3239F0803382
S113180039F4216026C02260246023C0286021C0EE
S113181027FD27C030ED380F3A3078F426FF06C094
S1131820FAE05F9E300D1124532E13C08AE0389ED7
S1131830300D1124332E20620CC08E3221F426FD8B
S11318406BC1206406C08C3611F4206802C088364F
S113185041F4F60193FD859193FF81916F0181110C
S1131860C1CF982F9F7D9554933028F40C5F1F4F60
S1131870FFE3F9830DC0833631F0833771F083358C
S113188009F05BC022C0F801808189830E5F1F4F7D
S113189044244394512C540115C03801F2E06F0ED6
S11318A0711CF801A080B18026FF03C0652D70E093
S11318B002C06FEF7FEFC5012C870E94A10D2C01A0
S11318C083012C852F77222E17C03801F2E06F0E8A
S11318D0711CF801A080B18026FF03C0652D70E063
S11318E002C06FEF7FEFC5012C870E94960D2C017B
S11318F02C852068222E830123FC1BC0832D90E0BD
S113190048165906B0F4B70180E290E00E94AC0D8D
S11319103A94F4CFF50127FC859127FE81915F016C
S1131920B70190E00E94AC0D31103A94F1E04F1AE7
S113193051084114510471F7E5C0843611F0893619
S113194039F5F80127FF07C0608171818281938195
S11319500C5F1F4F08C060817181882777FD8095D7
S1131960982F0E5F1F4F2F76B22E97FF09C09095C8
S11319708095709561957F4F8F4F9F4F2068B22E51
S11319802AE030E0A4010E94DE0DA82EA81844C06D
S1131990853729F42F7EB22E2AE030E025C0F22FBD
S11319A0F97FBF2E8F36C1F018F4883579F0B4C0B2
S11319B0803719F0883721F0AFC02F2F2061B22E65
S11319C0B4FE0DC08B2D8460B82E09C024FF0AC05C
S11319D09F2F9660B92E06C028E030E005C020E1B4
S11319E030E002C020E132E0F801B7FE07C06081B8
S11319F07181828193810C5F1F4F06C06081718168
S1131A0080E090E00E5F1F4FA4010E94DE0DA82E1F
S1131A10A818FB2DFF77BF2EB6FE0BC02B2D2E7FF3
S1131A20A51450F4B4FE0AC0B2FC08C02B2D2E7EBF
S1131A3005C07A2C2B2D03C07A2C01C0752C24FFF1
S1131A400DC0FE01EA0DF11D8081803311F4297E61
S1131A5009C022FF06C07394739404C0822F867851
S1131A6009F0739423FD13C020FF06C05A2C73148D
S1131A7018F4530C5718732C731468F4B70180E2EC
S1131A8090E02C870E94AC0D73942C85F5CF7314D1
S1131A9010F4371801C0312C24FF12C0B70180E3C1
S1131AA090E02C870E94AC0D2C8522FF17C021FFEB
S1131AB003C088E590E002C088E790E0B7010CC05D
S1131AC0822F867859F021FD02C080E201C08BE2AA
S1131AD027FD8DE2B70190E00E94AC0DA51438F407
S1131AE0B70180E390E00E94AC0D5A94F7CFAA941A
S1131AF0F401EA0DF11D8081B70190E00E94AC0D64
S1131B00A110F5CF332009F451CEB70180E290E063
S1131B100E94AC0D3A94F6CFF7018681978102C0FA
S1131B208FEF9FEF2C96E2E10C94580EFC01059088
S1131B30615070400110D8F7809590958E0F9F1FCB
S1131B400895FC016150704001900110D8F7809510
S1131B5090958E0F9F1F08950F931F93CF93DF933C
S1131B60182F092FEB018B8181FD03C08FEF9FEFAD
S1131B7020C082FF10C04E815F812C813D814217BD
S1131B8053077CF4E881F9819F012F5F3F4F39832C
S1131B902883108306C0E885F985812F0995892B50
S1131BA029F72E813F812F5F3F4F3F832E83812F63
S1131BB0902FDF91CF911F910F910895FA01AA27D9
S1131BC0283051F1203181F1E8946F936E7F6E5F7C
S1131BD07F4F8F4F9F4FAF4FB1E03ED0B4E03CD02A
S1131BE0670F781F891F9A1FA11D680F791F8A1F0D
S1131BF0911DA11D6A0F711D811D911DA11D20D074
S1131C0009F468943F912AE0269F11243019305D2D
S1131C103193DEF6CF010895462F4770405D41931E
S1131C20B3E00FD0C9F7F6CF462F4F70405D4A336B
S1131C3018F0495D31FD4052419302D0A9F7EACF33
S1131C40B4E0A6959795879577956795BA95C9F762
S1131C5000976105710508959B01AC010A2E069455
S1131C605795479537952795BA95C9F7620F731F0E
S1131C70841F951FA01D08952F923F924F925F924B
S1131C806F927F928F929F92AF92BF92CF92DF9288
S1131C90EF92FF920F931F93CF93DF93CDB7DEB7ED
S1131CA0CA1BDB0B0FB6F894DEBF0FBECDBF099481
S1131CB02A88398848885F846E847D848C849B84D8
S1131CC0AA84B984C884DF80EE80FD800C811B81E6
S1131CD0AA81B981CE0FD11D0FB6F894DEBF0FBE15
S10D1CE0CDBFED010895F894FFCF85
S1131CEA1901C0A801275B070000000000000000DA
S1131CFA0000000000000000008C029600000000B2
S1131D0A00F6019600000000001E00DE018A007938
S1131D1A00C50000000000000000000000000000F0
S1131D2A0000000003001636DE58F6C0A801E9FFD9
S1131D3AFFFF00C0A801010000000300000000CA60
S1131D4A06DB06000025732025730A00636F6E7490
S1131D5A726F6C007375627363726962650A0073E9
S1131D6A656E643A256420004F6B210A0046616956
S1131D7A6C0A003078253032782000747279207425
S1131D8A6F206F70656E0A004E6F7420636F6E6EFB
S1131D9A65637465640A00253035640070756220D1
S1131DAA25730A00746573740070696E672025646C
S1131DBA0A00726563656976653A256420004C54A5
S1131DCA320025643A253032782D253032782000C5
S9030000FC
